{"abi":[{"type":"constructor","inputs":[],"stateMutability":"nonpayable"},{"type":"function","name":"adminBurn","inputs":[{"name":"tokenId","type":"uint256","internalType":"uint256"}],"outputs":[],"stateMutability":"nonpayable"},{"type":"function","name":"approve","inputs":[{"name":"","type":"address","internalType":"address"},{"name":"","type":"uint256","internalType":"uint256"}],"outputs":[],"stateMutability":"pure"},{"type":"function","name":"balanceOf","inputs":[{"name":"owner","type":"address","internalType":"address"}],"outputs":[{"name":"","type":"uint256","internalType":"uint256"}],"stateMutability":"view"},{"type":"function","name":"getApproved","inputs":[{"name":"tokenId","type":"uint256","internalType":"uint256"}],"outputs":[{"name":"","type":"address","internalType":"address"}],"stateMutability":"view"},{"type":"function","name":"getIdentityData","inputs":[{"name":"tokenId","type":"uint256","internalType":"uint256"}],"outputs":[{"name":"","type":"tuple","internalType":"struct BloomIdentityCard.IdentityData","components":[{"name":"identityType","type":"string","internalType":"string"},{"name":"customTagline","type":"string","internalType":"string"},{"name":"customDescription","type":"string","internalType":"string"},{"name":"mainCategories","type":"string[]","internalType":"string[]"},{"name":"subCategories","type":"string[]","internalType":"string[]"},{"name":"mintedAt","type":"uint256","internalType":"uint256"}]}],"stateMutability":"view"},{"type":"function","name":"getTokenIdByAddress","inputs":[{"name":"owner","type":"address","internalType":"address"}],"outputs":[{"name":"","type":"uint256","internalType":"uint256"}],"stateMutability":"view"},{"type":"function","name":"getValidPersonalityTypes","inputs":[],"outputs":[{"name":"","type":"string[]","internalType":"string[]"}],"stateMutability":"view"},{"type":"function","name":"hasMinted","inputs":[{"name":"owner","type":"address","internalType":"address"}],"outputs":[{"name":"","type":"bool","internalType":"bool"}],"stateMutability":"view"},{"type":"function","name":"isApprovedForAll","inputs":[{"name":"owner","type":"address","internalType":"address"},{"name":"operator","type":"address","internalType":"address"}],"outputs":[{"name":"","type":"bool","internalType":"bool"}],"stateMutability":"view"},{"type":"function","name":"isValidPersonalityType","inputs":[{"name":"personalityType","type":"string","internalType":"string"}],"outputs":[{"name":"","type":"bool","internalType":"bool"}],"stateMutability":"view"},{"type":"function","name":"mint","inputs":[{"name":"identityType","type":"string","internalType":"string"},{"name":"customTagline","type":"string","internalType":"string"},{"name":"customDescription","type":"string","internalType":"string"},{"name":"mainCategories","type":"string[]","internalType":"string[]"},{"name":"subCategories","type":"string[]","internalType":"string[]"}],"outputs":[{"name":"","type":"uint256","internalType":"uint256"}],"stateMutability":"nonpayable"},{"type":"function","name":"name","inputs":[],"outputs":[{"name":"","type":"string","internalType":"string"}],"stateMutability":"view"},{"type":"function","name":"owner","inputs":[],"outputs":[{"name":"","type":"address","internalType":"address"}],"stateMutability":"view"},{"type":"function","name":"ownerOf","inputs":[{"name":"tokenId","type":"uint256","internalType":"uint256"}],"outputs":[{"name":"","type":"address","internalType":"address"}],"stateMutability":"view"},{"type":"function","name":"renounceOwnership","inputs":[],"outputs":[],"stateMutability":"nonpayable"},{"type":"function","name":"safeTransferFrom","inputs":[{"name":"from","type":"address","internalType":"address"},{"name":"to","type":"address","internalType":"address"},{"name":"tokenId","type":"uint256","internalType":"uint256"}],"outputs":[],"stateMutability":"nonpayable"},{"type":"function","name":"safeTransferFrom","inputs":[{"name":"from","type":"address","internalType":"address"},{"name":"to","type":"address","internalType":"address"},{"name":"tokenId","type":"uint256","internalType":"uint256"},{"name":"data","type":"bytes","internalType":"bytes"}],"outputs":[],"stateMutability":"nonpayable"},{"type":"function","name":"setApprovalForAll","inputs":[{"name":"","type":"address","internalType":"address"},{"name":"","type":"bool","internalType":"bool"}],"outputs":[],"stateMutability":"pure"},{"type":"function","name":"setBaseURI","inputs":[{"name":"baseURI","type":"string","internalType":"string"}],"outputs":[],"stateMutability":"nonpayable"},{"type":"function","name":"supportsInterface","inputs":[{"name":"interfaceId","type":"bytes4","internalType":"bytes4"}],"outputs":[{"name":"","type":"bool","internalType":"bool"}],"stateMutability":"view"},{"type":"function","name":"symbol","inputs":[],"outputs":[{"name":"","type":"string","internalType":"string"}],"stateMutability":"view"},{"type":"function","name":"tokenURI","inputs":[{"name":"tokenId","type":"uint256","internalType":"uint256"}],"outputs":[{"name":"","type":"string","internalType":"string"}],"stateMutability":"view"},{"type":"function","name":"totalSupply","inputs":[],"outputs":[{"name":"","type":"uint256","internalType":"uint256"}],"stateMutability":"view"},{"type":"function","name":"transferFrom","inputs":[{"name":"from","type":"address","internalType":"address"},{"name":"to","type":"address","internalType":"address"},{"name":"tokenId","type":"uint256","internalType":"uint256"}],"outputs":[],"stateMutability":"nonpayable"},{"type":"function","name":"transferOwnership","inputs":[{"name":"newOwner","type":"address","internalType":"address"}],"outputs":[],"stateMutability":"nonpayable"},{"type":"function","name":"updateIdentity","inputs":[{"name":"tokenId","type":"uint256","internalType":"uint256"},{"name":"identityType","type":"string","internalType":"string"},{"name":"customTagline","type":"string","internalType":"string"},{"name":"customDescription","type":"string","internalType":"string"},{"name":"mainCategories","type":"string[]","internalType":"string[]"},{"name":"subCategories","type":"string[]","internalType":"string[]"}],"outputs":[],"stateMutability":"nonpayable"},{"type":"event","name":"Approval","inputs":[{"name":"owner","type":"address","indexed":true,"internalType":"address"},{"name":"approved","type":"address","indexed":true,"internalType":"address"},{"name":"tokenId","type":"uint256","indexed":true,"internalType":"uint256"}],"anonymous":false},{"type":"event","name":"ApprovalForAll","inputs":[{"name":"owner","type":"address","indexed":true,"internalType":"address"},{"name":"operator","type":"address","indexed":true,"internalType":"address"},{"name":"approved","type":"bool","indexed":false,"internalType":"bool"}],"anonymous":false},{"type":"event","name":"IdentityCardMinted","inputs":[{"name":"owner","type":"address","indexed":true,"internalType":"address"},{"name":"tokenId","type":"uint256","indexed":true,"internalType":"uint256"},{"name":"identityType","type":"string","indexed":false,"internalType":"string"}],"anonymous":false},{"type":"event","name":"IdentityCardUpdated","inputs":[{"name":"tokenId","type":"uint256","indexed":true,"internalType":"uint256"},{"name":"identityType","type":"string","indexed":false,"internalType":"string"}],"anonymous":false},{"type":"event","name":"OwnershipTransferred","inputs":[{"name":"previousOwner","type":"address","indexed":true,"internalType":"address"},{"name":"newOwner","type":"address","indexed":true,"internalType":"address"}],"anonymous":false},{"type":"event","name":"Transfer","inputs":[{"name":"from","type":"address","indexed":true,"internalType":"address"},{"name":"to","type":"address","indexed":true,"internalType":"address"},{"name":"tokenId","type":"uint256","indexed":true,"internalType":"uint256"}],"anonymous":false},{"type":"error","name":"AlreadyMinted","inputs":[]},{"type":"error","name":"ERC721IncorrectOwner","inputs":[{"name":"sender","type":"address","internalType":"address"},{"name":"tokenId","type":"uint256","internalType":"uint256"},{"name":"owner","type":"address","internalType":"address"}]},{"type":"error","name":"ERC721InsufficientApproval","inputs":[{"name":"operator","type":"address","internalType":"address"},{"name":"tokenId","type":"uint256","internalType":"uint256"}]},{"type":"error","name":"ERC721InvalidApprover","inputs":[{"name":"approver","type":"address","internalType":"address"}]},{"type":"error","name":"ERC721InvalidOperator","inputs":[{"name":"operator","type":"address","internalType":"address"}]},{"type":"error","name":"ERC721InvalidOwner","inputs":[{"name":"owner","type":"address","internalType":"address"}]},{"type":"error","name":"ERC721InvalidReceiver","inputs":[{"name":"receiver","type":"address","internalType":"address"}]},{"type":"error","name":"ERC721InvalidSender","inputs":[{"name":"sender","type":"address","internalType":"address"}]},{"type":"error","name":"ERC721NonexistentToken","inputs":[{"name":"tokenId","type":"uint256","internalType":"uint256"}]},{"type":"error","name":"InvalidPersonalityType","inputs":[]},{"type":"error","name":"OwnableInvalidOwner","inputs":[{"name":"owner","type":"address","internalType":"address"}]},{"type":"error","name":"OwnableUnauthorizedAccount","inputs":[{"name":"account","type":"address","internalType":"address"}]},{"type":"error","name":"TokenDoesNotExist","inputs":[]},{"type":"error","name":"TransferNotAllowed","inputs":[]}],"bytecode":{"object":"0x608060405234801561000f575f5ffd5b50336040518060400160405280601381526020017f426c6f6f6d204964656e746974792043617264000000000000000000000000008152506040518060400160405280600881526020017f424c4f4f4d2d4944000000000000000000000000000000000000000000000000815250815f908161008b91906105f4565b50806001908161009b91906105f4565b5050505f73ffffffffffffffffffffffffffffffffffffffff168173ffffffffffffffffffffffffffffffffffffffff160361010e575f6040517f1e4fbdf70000000000000000000000000000000000000000000000000000000081526004016101059190610702565b60405180910390fd5b61011d816102e360201b60201c565b5060016007819055506040518060a001604052806040518060400160405280600c81526020017f546865204578706c6f726572000000000000000000000000000000000000000081525081526020016040518060400160405280600d81526020017f54686520496e6e6f7661746f720000000000000000000000000000000000000081525081526020016040518060400160405280600d81526020017f546865204f7074696d697a65720000000000000000000000000000000000000081525081526020016040518060400160405280600b81526020017f546865204d696e6466756c00000000000000000000000000000000000000000081525081526020016040518060400160405280600d81526020017f54686520566973696f6e61727900000000000000000000000000000000000000815250815250600c90816102649190610a4e565b505f5f90505b600c805490508110156102dd576001600b5f600c84815481106102905761028f610ab0565b5b905f5260205f20016040516102a59190610b79565b604051809103902081526020019081526020015f205f6101000a81548160ff021916908315150217905550808060010191505061026a565b50610b8f565b5f60065f9054906101000a900473ffffffffffffffffffffffffffffffffffffffff1690508160065f6101000a81548173ffffffffffffffffffffffffffffffffffffffff021916908373ffffffffffffffffffffffffffffffffffffffff1602179055508173ffffffffffffffffffffffffffffffffffffffff168173ffffffffffffffffffffffffffffffffffffffff167f8be0079c531659141344cd1fd0a4f28419497f9722a3daafe3b4186f6b6457e060405160405180910390a35050565b5f81519050919050565b7f4e487b71000000000000000000000000000000000000000000000000000000005f52604160045260245ffd5b7f4e487b71000000000000000000000000000000000000000000000000000000005f52602260045260245ffd5b5f600282049050600182168061042157607f821691505b602082108103610434576104336103dd565b5b50919050565b5f819050815f5260205f209050919050565b5f6020601f8301049050919050565b5f82821b905092915050565b5f600883026104967fffffffffffffffffffffffffffffffffffffffffffffffffffffffffffffffff8261045b565b6104a0868361045b565b95508019841693508086168417925050509392505050565b5f819050919050565b5f819050919050565b5f6104e46104df6104da846104b8565b6104c1565b6104b8565b9050919050565b5f819050919050565b6104fd836104ca565b610511610509826104eb565b848454610467565b825550505050565b5f5f905090565b610528610519565b6105338184846104f4565b505050565b5f5b828110156105595761054e5f828401610520565b60018101905061053a565b505050565b601f8211156105ac57828211156105ab576105788161043a565b6105818361044c565b61058a8561044c565b6020861015610597575f90505b8083016105a682840382610538565b505050505b5b505050565b5f82821c905092915050565b5f6105cc5f19846008026105b1565b1980831691505092915050565b5f6105e483836105bd565b9150826002028217905092915050565b6105fd826103a6565b67ffffffffffffffff811115610616576106156103b0565b5b610620825461040a565b61062b82828561055e565b5f60209050601f83116001811461065c575f841561064a578287015190505b61065485826105d9565b8655506106bb565b601f19841661066a8661043a565b5f5b828110156106915784890151825560018201915060208501945060208101905061066c565b868310156106ae57848901516106aa601f8916826105bd565b8355505b6001600288020188555050505b505050505050565b5f73ffffffffffffffffffffffffffffffffffffffff82169050919050565b5f6106ec826106c3565b9050919050565b6106fc816106e2565b82525050565b5f6020820190506107155f8301846106f3565b92915050565b5f819050919050565b5f81549050919050565b5f8190506001806001038301049050919050565b5f819050815f5260205f209050919050565b6107847fffffffffffffffffffffffffffffffffffffffffffffffffffffffffffffffff836020036008026105b1565b815481168255505050565b6107988161043a565b6107a38382546105d9565b8083555f825550505050565b602084105f811461080a57601f8411600181146107d7576107d086856105d9565b8355610804565b6107e08361043a565b6107f860016107ee8861044c565b0360018301610538565b610802878561078f565b505b50610864565b6108138561044c565b61081c8561044c565b6108258461043a565b828101601f891680156108405761083f8160018403610754565b5b848411156108555761085485850383610538565b5b60018a60020217875550505050505b5050505050565b68010000000000000000841115610885576108846103b0565b5b602083105f81146108ce57602085105f81146108ac576108a586856105d9565b83556108c8565b8360ff19169350836108bd8461043a565b556001866002020183555b506108d8565b6001856002020182555b5050505050565b80546108ea8161040a565b808411156108ff576108fe8482848661086b565b5b8084101561091457610913848284866107af565b5b50505050565b828110156109395761092e5f828401610520565b60018101905061091a565b505050565b6109485f826108df565b50565b7f4e487b71000000000000000000000000000000000000000000000000000000005f525f60045260245ffd5b5f82146109875761098661094b565b5b6109908161093e565b5050565b5f5b828110156109b5576109aa5f828401610977565b600181019050610996565b505050565b818310156109f1576109cb8261072e565b6109d48461072e565b6109dd83610742565b8181016109ec83850382610994565b505050505b505050565b68010000000000000000821115610a1057610a0f6103b0565b5b610a1981610724565b828255610a278382846109ba565b505050565b5f60059050919050565b5f81519050919050565b610a4a82826105f4565b5050565b610a5782610a2c565b610a6181836109f6565b610a6a8361071b565b610a7383610742565b5f5b83811015610aa857610a8683610a36565b610a908184610a40565b60208401935060018301925050600181019050610a75565b505050505050565b7f4e487b71000000000000000000000000000000000000000000000000000000005f52603260045260245ffd5b5f81905092915050565b5f819050815f5260205f209050919050565b5f8154610b058161040a565b610b0f8186610add565b9450600182165f8114610b295760018114610b3e57610b70565b60ff1983168652811515820286019350610b70565b610b4785610ae7565b5f5b83811015610b6857815481890152600182019150602081019050610b49565b838801955050505b50505092915050565b5f610b848284610af9565b915081905092915050565b61483e80610b9c5f395ff3fe608060405234801561000f575f5ffd5b506004361061018c575f3560e01c8063715018a6116100dc578063b88d4fde11610095578063c59e81cf1161006f578063c59e81cf146104a2578063c87b56dd146104c0578063e985e9c5146104f0578063f2fde38b146105205761018c565b8063b88d4fde1461044e578063badb97ff1461046a578063c213bf80146104865761018c565b8063715018a61461038c57806377e24e34146103965780638cbab7e4146103c65780638da5cb5b146103f657806395d89b4114610414578063a22cb465146104325761018c565b806338e21cce116101495780634f632d4b116101235780634f632d4b146102e057806355f804b3146103105780636352211e1461032c57806370a082311461035c5761018c565b806338e21cce1461026457806342842e0e1461029457806348c363f6146102b05761018c565b806301ffc9a71461019057806306fdde03146101c0578063081812fc146101de578063095ea7b31461020e57806318160ddd1461022a57806323b872dd14610248575b5f5ffd5b6101aa60048036038101906101a59190612bd5565b61053c565b6040516101b79190612c1a565b60405180910390f35b6101c861061d565b6040516101d59190612ca3565b60405180910390f35b6101f860048036038101906101f39190612cf6565b6106ac565b6040516102059190612d60565b60405180910390f35b61022860048036038101906102239190612da3565b6106c7565b005b6102326106f9565b60405161023f9190612df0565b60405180910390f35b610262600480360381019061025d9190612e09565b61070e565b005b61027e60048036038101906102799190612e59565b61080d565b60405161028b9190612c1a565b60405180910390f35b6102ae60048036038101906102a99190612e09565b610856565b005b6102ca60048036038101906102c59190612cf6565b610875565b6040516102d79190613038565b60405180910390f35b6102fa60048036038101906102f59190613266565b610c0b565b6040516103079190612df0565b60405180910390f35b61032a60048036038101906103259190613369565b610e39565b005b61034660048036038101906103419190612cf6565b610e54565b6040516103539190612d60565b60405180910390f35b61037660048036038101906103719190612e59565b610e65565b6040516103839190612df0565b60405180910390f35b610394610f1b565b005b6103b060048036038101906103ab9190613369565b610f2e565b6040516103bd9190612c1a565b60405180910390f35b6103e060048036038101906103db9190612e59565b610f3f565b6040516103ed9190612df0565b60405180910390f35b6103fe610f85565b60405161040b9190612d60565b60405180910390f35b61041c610fad565b6040516104299190612ca3565b60405180910390f35b61044c600480360381019061044791906133da565b61103d565b005b610468600480360381019061046391906134b6565b61106f565b005b610484600480360381019061047f9190612cf6565b611094565b005b6104a0600480360381019061049b9190613536565b61115a565b005b6104aa611316565b6040516104b791906136ce565b60405180910390f35b6104da60048036038101906104d59190612cf6565b6113ea565b6040516104e79190612ca3565b60405180910390f35b61050a600480360381019061050591906136ee565b6117f1565b6040516105179190612c1a565b60405180910390f35b61053a60048036038101906105359190612e59565b61187f565b005b5f7f80ac58cd000000000000000000000000000000000000000000000000000000007bffffffffffffffffffffffffffffffffffffffffffffffffffffffff1916827bffffffffffffffffffffffffffffffffffffffffffffffffffffffff1916148061060657507f5b5e139f000000000000000000000000000000000000000000000000000000007bffffffffffffffffffffffffffffffffffffffffffffffffffffffff1916827bffffffffffffffffffffffffffffffffffffffffffffffffffffffff1916145b80610616575061061582611903565b5b9050919050565b60605f805461062b90613759565b80601f016020809104026020016040519081016040528092919081815260200182805461065790613759565b80156106a25780601f10610679576101008083540402835291602001916106a2565b820191905f5260205f20905b81548152906001019060200180831161068557829003601f168201915b5050505050905090565b5f6106b68261196c565b506106c0826119f2565b9050919050565b6040517f8cd22d1900000000000000000000000000000000000000000000000000000000815260040160405180910390fd5b5f600160075461070991906137b6565b905090565b5f73ffffffffffffffffffffffffffffffffffffffff168273ffffffffffffffffffffffffffffffffffffffff160361077e575f6040517f64a0ae920000000000000000000000000000000000000000000000000000000081526004016107759190612d60565b60405180910390fd5b5f610791838361078c611a2b565b611a32565b90508373ffffffffffffffffffffffffffffffffffffffff168173ffffffffffffffffffffffffffffffffffffffff1614610807578382826040517f64283d7b0000000000000000000000000000000000000000000000000000000081526004016107fe939291906137e9565b60405180910390fd5b50505050565b5f5f60095f8473ffffffffffffffffffffffffffffffffffffffff1673ffffffffffffffffffffffffffffffffffffffff1681526020019081526020015f205414159050919050565b61087083838360405180602001604052805f81525061106f565b505050565b61087d612aa3565b6108868261196c565b5060085f8381526020019081526020015f206040518060c00160405290815f820180546108b290613759565b80601f01602080910402602001604051908101604052809291908181526020018280546108de90613759565b80156109295780601f1061090057610100808354040283529160200191610929565b820191905f5260205f20905b81548152906001019060200180831161090c57829003601f168201915b5050505050815260200160018201805461094290613759565b80601f016020809104026020016040519081016040528092919081815260200182805461096e90613759565b80156109b95780601f10610990576101008083540402835291602001916109b9565b820191905f5260205f20905b81548152906001019060200180831161099c57829003601f168201915b505050505081526020016002820180546109d290613759565b80601f01602080910402602001604051908101604052809291908181526020018280546109fe90613759565b8015610a495780601f10610a2057610100808354040283529160200191610a49565b820191905f5260205f20905b815481529060010190602001808311610a2c57829003601f168201915b5050505050815260200160038201805480602002602001604051908101604052809291908181526020015f905b82821015610b1e578382905f5260205f20018054610a9390613759565b80601f0160208091040260200160405190810160405280929190818152602001828054610abf90613759565b8015610b0a5780601f10610ae157610100808354040283529160200191610b0a565b820191905f5260205f20905b815481529060010190602001808311610aed57829003601f168201915b505050505081526020019060010190610a76565b50505050815260200160048201805480602002602001604051908101604052809291908181526020015f905b82821015610bf2578382905f5260205f20018054610b6790613759565b80601f0160208091040260200160405190810160405280929190818152602001828054610b9390613759565b8015610bde5780601f10610bb557610100808354040283529160200191610bde565b820191905f5260205f20905b815481529060010190602001808311610bc157829003601f168201915b505050505081526020019060010190610b4a565b5050505081526020016005820154815250509050919050565b5f610c1586611af3565b610c4b576040517ff6d3228600000000000000000000000000000000000000000000000000000000815260040160405180910390fd5b5f60095f3373ffffffffffffffffffffffffffffffffffffffff1673ffffffffffffffffffffffffffffffffffffffff1681526020019081526020015f205414610cc1576040517fddefae2800000000000000000000000000000000000000000000000000000000815260040160405180910390fd5b5f60075f815480929190610cd49061381e565b919050559050610ce43382611b20565b6040518060c001604052808881526020018781526020018681526020018581526020018481526020014281525060085f8381526020019081526020015f205f820151815f019081610d359190613a16565b506020820151816001019081610d4b9190613a16565b506040820151816002019081610d619190613a16565b506060820151816003019081610d779190613e46565b506080820151816004019081610d8d9190613e46565b5060a082015181600501559050508060095f3373ffffffffffffffffffffffffffffffffffffffff1673ffffffffffffffffffffffffffffffffffffffff1681526020019081526020015f2081905550803373ffffffffffffffffffffffffffffffffffffffff167f93dd4f00800b4075d4f4b111f4364225c28d5d80f58b602819f74958c5ecfe6189604051610e249190612ca3565b60405180910390a38091505095945050505050565b610e41611b3d565b80600a9081610e509190613a16565b5050565b5f610e5e8261196c565b9050919050565b5f5f73ffffffffffffffffffffffffffffffffffffffff168273ffffffffffffffffffffffffffffffffffffffff1603610ed6575f6040517f89c62b64000000000000000000000000000000000000000000000000000000008152600401610ecd9190612d60565b60405180910390fd5b60035f8373ffffffffffffffffffffffffffffffffffffffff1673ffffffffffffffffffffffffffffffffffffffff1681526020019081526020015f20549050919050565b610f23611b3d565b610f2c5f611bc4565b565b5f610f3882611af3565b9050919050565b5f60095f8373ffffffffffffffffffffffffffffffffffffffff1673ffffffffffffffffffffffffffffffffffffffff1681526020019081526020015f20549050919050565b5f60065f9054906101000a900473ffffffffffffffffffffffffffffffffffffffff16905090565b606060018054610fbc90613759565b80601f0160208091040260200160405190810160405280929190818152602001828054610fe890613759565b80156110335780601f1061100a57610100808354040283529160200191611033565b820191905f5260205f20905b81548152906001019060200180831161101657829003601f168201915b5050505050905090565b6040517f8cd22d1900000000000000000000000000000000000000000000000000000000815260040160405180910390fd5b61107a84848461070e565b61108e611085611a2b565b85858585611c87565b50505050565b61109c611b3d565b5f6110a682610e54565b90506110b182611e33565b60085f8381526020019081526020015f205f5f82015f6110d19190612ad8565b600182015f6110e09190612ad8565b600282015f6110ef9190612ad8565b600382015f6110fe9190612b12565b600482015f61110d9190612b12565b600582015f9055505060095f8273ffffffffffffffffffffffffffffffffffffffff1673ffffffffffffffffffffffffffffffffffffffff1681526020019081526020015f205f90555050565b61116385611af3565b611199576040517ff6d3228600000000000000000000000000000000000000000000000000000000815260040160405180910390fd5b3373ffffffffffffffffffffffffffffffffffffffff166111b987610e54565b73ffffffffffffffffffffffffffffffffffffffff1614611206576040517fceea21b600000000000000000000000000000000000000000000000000000000815260040160405180910390fd5b5f60085f8881526020019081526020015f206005015490506040518060c001604052808781526020018681526020018581526020018481526020018381526020018281525060085f8981526020019081526020015f205f820151815f01908161126f9190613a16565b5060208201518160010190816112859190613a16565b50604082015181600201908161129b9190613a16565b5060608201518160030190816112b19190613e46565b5060808201518160040190816112c79190613e46565b5060a08201518160050155905050867f573e651e120f41cc1415969dfba8e732d9760aab12e440686ebc6e739e2c941c876040516113059190612ca3565b60405180910390a250505050505050565b6060600c805480602002602001604051908101604052809291908181526020015f905b828210156113e1578382905f5260205f2001805461135690613759565b80601f016020809104026020016040519081016040528092919081815260200182805461138290613759565b80156113cd5780601f106113a4576101008083540402835291602001916113cd565b820191905f5260205f20905b8154815290600101906020018083116113b057829003601f168201915b505050505081526020019060010190611339565b50505050905090565b60606113f58261196c565b505f60085f8481526020019081526020015f206040518060c00160405290815f8201805461142290613759565b80601f016020809104026020016040519081016040528092919081815260200182805461144e90613759565b80156114995780601f1061147057610100808354040283529160200191611499565b820191905f5260205f20905b81548152906001019060200180831161147c57829003601f168201915b505050505081526020016001820180546114b290613759565b80601f01602080910402602001604051908101604052809291908181526020018280546114de90613759565b80156115295780601f1061150057610100808354040283529160200191611529565b820191905f5260205f20905b81548152906001019060200180831161150c57829003601f168201915b5050505050815260200160028201805461154290613759565b80601f016020809104026020016040519081016040528092919081815260200182805461156e90613759565b80156115b95780601f10611590576101008083540402835291602001916115b9565b820191905f5260205f20905b81548152906001019060200180831161159c57829003601f168201915b5050505050815260200160038201805480602002602001604051908101604052809291908181526020015f905b8282101561168e578382905f5260205f2001805461160390613759565b80601f016020809104026020016040519081016040528092919081815260200182805461162f90613759565b801561167a5780601f106116515761010080835404028352916020019161167a565b820191905f5260205f20905b81548152906001019060200180831161165d57829003601f168201915b5050505050815260200190600101906115e6565b50505050815260200160048201805480602002602001604051908101604052809291908181526020015f905b82821015611762578382905f5260205f200180546116d790613759565b80601f016020809104026020016040519081016040528092919081815260200182805461170390613759565b801561174e5780601f106117255761010080835404028352916020019161174e565b820191905f5260205f20905b81548152906001019060200180831161173157829003601f168201915b5050505050815260200190600101906116ba565b50505050815260200160058201548152505090505f61178082611eb5565b90505f61178c85611f3e565b836040015161179a87612008565b846040516020016117ae949392919061409e565b60405160208183030381529060405290506117c881612073565b6040516020016117d8919061417d565b6040516020818303038152906040529350505050919050565b5f60055f8473ffffffffffffffffffffffffffffffffffffffff1673ffffffffffffffffffffffffffffffffffffffff1681526020019081526020015f205f8373ffffffffffffffffffffffffffffffffffffffff1673ffffffffffffffffffffffffffffffffffffffff1681526020019081526020015f205f9054906101000a900460ff16905092915050565b611887611b3d565b5f73ffffffffffffffffffffffffffffffffffffffff168173ffffffffffffffffffffffffffffffffffffffff16036118f7575f6040517f1e4fbdf70000000000000000000000000000000000000000000000000000000081526004016118ee9190612d60565b60405180910390fd5b61190081611bc4565b50565b5f7f01ffc9a7000000000000000000000000000000000000000000000000000000007bffffffffffffffffffffffffffffffffffffffffffffffffffffffff1916827bffffffffffffffffffffffffffffffffffffffffffffffffffffffff1916149050919050565b5f5f61197783612086565b90505f73ffffffffffffffffffffffffffffffffffffffff168173ffffffffffffffffffffffffffffffffffffffff16036119e957826040517f7e2732890000000000000000000000000000000000000000000000000000000081526004016119e09190612df0565b60405180910390fd5b80915050919050565b5f60045f8381526020019081526020015f205f9054906101000a900473ffffffffffffffffffffffffffffffffffffffff169050919050565b5f33905090565b5f5f611a3d84612086565b90505f73ffffffffffffffffffffffffffffffffffffffff168173ffffffffffffffffffffffffffffffffffffffff1614158015611aa757505f73ffffffffffffffffffffffffffffffffffffffff168573ffffffffffffffffffffffffffffffffffffffff1614155b15611ade576040517f8cd22d1900000000000000000000000000000000000000000000000000000000815260040160405180910390fd5b611ae98585856120bf565b9150509392505050565b5f600b5f838051906020012081526020019081526020015f205f9054906101000a900460ff169050919050565b611b39828260405180602001604052805f8152506122ca565b5050565b611b45611a2b565b73ffffffffffffffffffffffffffffffffffffffff16611b63610f85565b73ffffffffffffffffffffffffffffffffffffffff1614611bc257611b86611a2b565b6040517f118cdaa7000000000000000000000000000000000000000000000000000000008152600401611bb99190612d60565b60405180910390fd5b565b5f60065f9054906101000a900473ffffffffffffffffffffffffffffffffffffffff1690508160065f6101000a81548173ffffffffffffffffffffffffffffffffffffffff021916908373ffffffffffffffffffffffffffffffffffffffff1602179055508173ffffffffffffffffffffffffffffffffffffffff168173ffffffffffffffffffffffffffffffffffffffff167f8be0079c531659141344cd1fd0a4f28419497f9722a3daafe3b4186f6b6457e060405160405180910390a35050565b5f8373ffffffffffffffffffffffffffffffffffffffff163b1115611e2c578273ffffffffffffffffffffffffffffffffffffffff1663150b7a02868685856040518563ffffffff1660e01b8152600401611ce594939291906141f0565b6020604051808303815f875af1925050508015611d2057506040513d601f19601f82011682018060405250810190611d1d919061424e565b60015b611da1573d805f8114611d4e576040519150601f19603f3d011682016040523d82523d5f602084013e611d53565b606091505b505f815103611d9957836040517f64a0ae92000000000000000000000000000000000000000000000000000000008152600401611d909190612d60565b60405180910390fd5b805160208201fd5b63150b7a0260e01b7bffffffffffffffffffffffffffffffffffffffffffffffffffffffff1916817bffffffffffffffffffffffffffffffffffffffffffffffffffffffff191614611e2a57836040517f64a0ae92000000000000000000000000000000000000000000000000000000008152600401611e219190612d60565b60405180910390fd5b505b5050505050565b5f611e3f5f835f611a32565b90505f73ffffffffffffffffffffffffffffffffffffffff168173ffffffffffffffffffffffffffffffffffffffff1603611eb157816040517f7e273289000000000000000000000000000000000000000000000000000000008152600401611ea89190612df0565b60405180910390fd5b5050565b60605f611efb83606001516040518060400160405280600281526020017f2c200000000000000000000000000000000000000000000000000000000000008152506122ed565b9050825f0151836020015182611f148660a00151611f3e565b604051602001611f279493929190614517565b604051602081830303815290604052915050919050565b60605f6001611f4c84612393565b0190505f8167ffffffffffffffff811115611f6a57611f69613060565b5b6040519080825280601f01601f191660200182016040528015611f9c5781602001600182028036833780820191505090505b5090505f82602083010190505b600115611ffd578080600190039150507f3031323334353637383961626364656600000000000000000000000000000000600a86061a8153600a8581611ff257611ff16145c2565b5b0494505f8503611fa9575b819350505050919050565b60605f600a805461201890613759565b9050111561205257600a61202b83611f3e565b60405160200161203c9291906146b9565b604051602081830303815290604052905061206e565b6040518060600160405280603a81526020016147cf603a913990505b919050565b606061207f825f6124e4565b9050919050565b5f60025f8381526020019081526020015f205f9054906101000a900473ffffffffffffffffffffffffffffffffffffffff169050919050565b5f5f6120ca84612086565b90505f73ffffffffffffffffffffffffffffffffffffffff168373ffffffffffffffffffffffffffffffffffffffff161461210b5761210a81848661266e565b5b5f73ffffffffffffffffffffffffffffffffffffffff168173ffffffffffffffffffffffffffffffffffffffff16146121965761214a5f855f5f612731565b600160035f8373ffffffffffffffffffffffffffffffffffffffff1673ffffffffffffffffffffffffffffffffffffffff1681526020019081526020015f205f82825403925050819055505b5f73ffffffffffffffffffffffffffffffffffffffff168573ffffffffffffffffffffffffffffffffffffffff161461221557600160035f8773ffffffffffffffffffffffffffffffffffffffff1673ffffffffffffffffffffffffffffffffffffffff1681526020019081526020015f205f82825401925050819055505b8460025f8681526020019081526020015f205f6101000a81548173ffffffffffffffffffffffffffffffffffffffff021916908373ffffffffffffffffffffffffffffffffffffffff160217905550838573ffffffffffffffffffffffffffffffffffffffff168273ffffffffffffffffffffffffffffffffffffffff167fddf252ad1be2c89b69c2b068fc378daa952ba7f163c4a11628f55a4df523b3ef60405160405180910390a4809150509392505050565b6122d483836128f0565b6122e86122df611a2b565b5f858585611c87565b505050565b60605f83510361230d5760405180602001604052805f815250905061238d565b5f835f81518110612321576123206146e7565b5b602002602001015190505f600190505b845181101561238757818486838151811061234f5761234e6146e7565b5b602002602001015160405160200161236993929190614714565b60405160208183030381529060405291508080600101915050612331565b50809150505b92915050565b5f5f5f90507a184f03e93ff9f4daa797ed6e38ed64bf6a1f01000000000000000083106123ef577a184f03e93ff9f4daa797ed6e38ed64bf6a1f01000000000000000083816123e5576123e46145c2565b5b0492506040810190505b6d04ee2d6d415b85acef8100000000831061242c576d04ee2d6d415b85acef81000000008381612422576124216145c2565b5b0492506020810190505b662386f26fc10000831061245b57662386f26fc100008381612451576124506145c2565b5b0492506010810190505b6305f5e1008310612484576305f5e100838161247a576124796145c2565b5b0492506008810190505b61271083106124a957612710838161249f5761249e6145c2565b5b0492506004810190505b606483106124cc57606483816124c2576124c16145c2565b5b0492506002810190505b600a83106124db576001810190505b80915050919050565b60605f8351036125045760405180602001604052805f8152509050612668565b5f826125355760036002855161251a9190614744565b6125249190614777565b60046125309190613aef565b61255c565b60036002855160046125479190613aef565b6125519190614744565b61255b9190614777565b5b905060405191507f4142434445464748494a4b4c4d4e4f505152535455565758595a616263646566601f5261067083027f6768696a6b6c6d6e6f707172737475767778797a303132333435363738392b2f18603f526020820181810185865187016020810180515f82525b8284101561261a576003840193508351603f8160121c16518753600187019650603f81600c1c16518753600187019650603f8160061c16518753600187019650603f8116518753600187019650506125c7565b808252886126595760038a51066001811461263c576002811461264f57612657565b603d6001880353603d6002880353612657565b603d60018803535b505b86885284604052505050505050505b92915050565b6126798383836129e3565b61272c575f73ffffffffffffffffffffffffffffffffffffffff168373ffffffffffffffffffffffffffffffffffffffff16036126ed57806040517f7e2732890000000000000000000000000000000000000000000000000000000081526004016126e49190612df0565b60405180910390fd5b81816040517f177e802f0000000000000000000000000000000000000000000000000000000081526004016127239291906147a7565b60405180910390fd5b505050565b808061276957505f73ffffffffffffffffffffffffffffffffffffffff168273ffffffffffffffffffffffffffffffffffffffff1614155b1561289b575f6127788461196c565b90505f73ffffffffffffffffffffffffffffffffffffffff168373ffffffffffffffffffffffffffffffffffffffff16141580156127e257508273ffffffffffffffffffffffffffffffffffffffff168173ffffffffffffffffffffffffffffffffffffffff1614155b80156127f557506127f381846117f1565b155b1561283757826040517fa9fbf51f00000000000000000000000000000000000000000000000000000000815260040161282e9190612d60565b60405180910390fd5b811561289957838573ffffffffffffffffffffffffffffffffffffffff168273ffffffffffffffffffffffffffffffffffffffff167f8c5be1e5ebec7d5bd14f71427d1e84f3dd0314c0f7b2291e5b200ac8c7c3b92560405160405180910390a45b505b8360045f8581526020019081526020015f205f6101000a81548173ffffffffffffffffffffffffffffffffffffffff021916908373ffffffffffffffffffffffffffffffffffffffff16021790555050505050565b5f73ffffffffffffffffffffffffffffffffffffffff168273ffffffffffffffffffffffffffffffffffffffff1603612960575f6040517f64a0ae920000000000000000000000000000000000000000000000000000000081526004016129579190612d60565b60405180910390fd5b5f61296c83835f611a32565b90505f73ffffffffffffffffffffffffffffffffffffffff168173ffffffffffffffffffffffffffffffffffffffff16146129de575f6040517f73c6ac6e0000000000000000000000000000000000000000000000000000000081526004016129d59190612d60565b60405180910390fd5b505050565b5f5f73ffffffffffffffffffffffffffffffffffffffff168373ffffffffffffffffffffffffffffffffffffffff1614158015612a9a57508273ffffffffffffffffffffffffffffffffffffffff168473ffffffffffffffffffffffffffffffffffffffff161480612a5b5750612a5a84846117f1565b5b80612a9957508273ffffffffffffffffffffffffffffffffffffffff16612a81836119f2565b73ffffffffffffffffffffffffffffffffffffffff16145b5b90509392505050565b6040518060c0016040528060608152602001606081526020016060815260200160608152602001606081526020015f81525090565b508054612ae490613759565b5f825580601f10612af55750612b0f565b601f0160209004905f5260205f2090612b0e9190612b2d565b5b50565b5080545f8255905f5260205f2090612b2a9190612b4a565b50565b5f5b80821115612b45578281015f9055600101612b2f565b505090565b5f5b80821115612b6a578281015f612b629190612ad8565b600101612b4c565b505090565b5f604051905090565b5f5ffd5b5f5ffd5b5f7fffffffff0000000000000000000000000000000000000000000000000000000082169050919050565b612bb481612b80565b8114612bbe575f5ffd5b50565b5f81359050612bcf81612bab565b92915050565b5f60208284031215612bea57612be9612b78565b5b5f612bf784828501612bc1565b91505092915050565b5f8115159050919050565b612c1481612c00565b82525050565b5f602082019050612c2d5f830184612c0b565b92915050565b5f81519050919050565b5f82825260208201905092915050565b8281835e5f83830152505050565b5f601f19601f8301169050919050565b5f612c7582612c33565b612c7f8185612c3d565b9350612c8f818560208601612c4d565b612c9881612c5b565b840191505092915050565b5f6020820190508181035f830152612cbb8184612c6b565b905092915050565b5f819050919050565b612cd581612cc3565b8114612cdf575f5ffd5b50565b5f81359050612cf081612ccc565b92915050565b5f60208284031215612d0b57612d0a612b78565b5b5f612d1884828501612ce2565b91505092915050565b5f73ffffffffffffffffffffffffffffffffffffffff82169050919050565b5f612d4a82612d21565b9050919050565b612d5a81612d40565b82525050565b5f602082019050612d735f830184612d51565b92915050565b612d8281612d40565b8114612d8c575f5ffd5b50565b5f81359050612d9d81612d79565b92915050565b5f5f60408385031215612db957612db8612b78565b5b5f612dc685828601612d8f565b9250506020612dd785828601612ce2565b9150509250929050565b612dea81612cc3565b82525050565b5f602082019050612e035f830184612de1565b92915050565b5f5f5f60608486031215612e2057612e1f612b78565b5b5f612e2d86828701612d8f565b9350506020612e3e86828701612d8f565b9250506040612e4f86828701612ce2565b9150509250925092565b5f60208284031215612e6e57612e6d612b78565b5b5f612e7b84828501612d8f565b91505092915050565b5f82825260208201905092915050565b5f612e9e82612c33565b612ea88185612e84565b9350612eb8818560208601612c4d565b612ec181612c5b565b840191505092915050565b5f81519050919050565b5f82825260208201905092915050565b5f819050602082019050919050565b5f612f008383612e94565b905092915050565b5f602082019050919050565b5f612f1e82612ecc565b612f288185612ed6565b935083602082028501612f3a85612ee6565b805f5b85811015612f755784840389528151612f568582612ef5565b9450612f6183612f08565b925060208a01995050600181019050612f3d565b50829750879550505050505092915050565b612f9081612cc3565b82525050565b5f60c083015f8301518482035f860152612fb08282612e94565b91505060208301518482036020860152612fca8282612e94565b91505060408301518482036040860152612fe48282612e94565b91505060608301518482036060860152612ffe8282612f14565b915050608083015184820360808601526130188282612f14565b91505060a083015161302d60a0860182612f87565b508091505092915050565b5f6020820190508181035f8301526130508184612f96565b905092915050565b5f5ffd5b5f5ffd5b7f4e487b71000000000000000000000000000000000000000000000000000000005f52604160045260245ffd5b61309682612c5b565b810181811067ffffffffffffffff821117156130b5576130b4613060565b5b80604052505050565b5f6130c7612b6f565b90506130d3828261308d565b919050565b5f67ffffffffffffffff8211156130f2576130f1613060565b5b6130fb82612c5b565b9050602081019050919050565b828183375f83830152505050565b5f613128613123846130d8565b6130be565b9050828152602081018484840111156131445761314361305c565b5b61314f848285613108565b509392505050565b5f82601f83011261316b5761316a613058565b5b813561317b848260208601613116565b91505092915050565b5f67ffffffffffffffff82111561319e5761319d613060565b5b602082029050602081019050919050565b5f5ffd5b5f6131c56131c084613184565b6130be565b905080838252602082019050602084028301858111156131e8576131e76131af565b5b835b8181101561322f57803567ffffffffffffffff81111561320d5761320c613058565b5b80860161321a8982613157565b855260208501945050506020810190506131ea565b5050509392505050565b5f82601f83011261324d5761324c613058565b5b813561325d8482602086016131b3565b91505092915050565b5f5f5f5f5f60a0868803121561327f5761327e612b78565b5b5f86013567ffffffffffffffff81111561329c5761329b612b7c565b5b6132a888828901613157565b955050602086013567ffffffffffffffff8111156132c9576132c8612b7c565b5b6132d588828901613157565b945050604086013567ffffffffffffffff8111156132f6576132f5612b7c565b5b61330288828901613157565b935050606086013567ffffffffffffffff81111561332357613322612b7c565b5b61332f88828901613239565b925050608086013567ffffffffffffffff8111156133505761334f612b7c565b5b61335c88828901613239565b9150509295509295909350565b5f6020828403121561337e5761337d612b78565b5b5f82013567ffffffffffffffff81111561339b5761339a612b7c565b5b6133a784828501613157565b91505092915050565b6133b981612c00565b81146133c3575f5ffd5b50565b5f813590506133d4816133b0565b92915050565b5f5f604083850312156133f0576133ef612b78565b5b5f6133fd85828601612d8f565b925050602061340e858286016133c6565b9150509250929050565b5f67ffffffffffffffff82111561343257613431613060565b5b61343b82612c5b565b9050602081019050919050565b5f61345a61345584613418565b6130be565b9050828152602081018484840111156134765761347561305c565b5b613481848285613108565b509392505050565b5f82601f83011261349d5761349c613058565b5b81356134ad848260208601613448565b91505092915050565b5f5f5f5f608085870312156134ce576134cd612b78565b5b5f6134db87828801612d8f565b94505060206134ec87828801612d8f565b93505060406134fd87828801612ce2565b925050606085013567ffffffffffffffff81111561351e5761351d612b7c565b5b61352a87828801613489565b91505092959194509250565b5f5f5f5f5f5f60c087890312156135505761354f612b78565b5b5f61355d89828a01612ce2565b965050602087013567ffffffffffffffff81111561357e5761357d612b7c565b5b61358a89828a01613157565b955050604087013567ffffffffffffffff8111156135ab576135aa612b7c565b5b6135b789828a01613157565b945050606087013567ffffffffffffffff8111156135d8576135d7612b7c565b5b6135e489828a01613157565b935050608087013567ffffffffffffffff81111561360557613604612b7c565b5b61361189828a01613239565b92505060a087013567ffffffffffffffff81111561363257613631612b7c565b5b61363e89828a01613239565b9150509295509295509295565b5f82825260208201905092915050565b5f61366582612ecc565b61366f818561364b565b93508360208202850161368185612ee6565b805f5b858110156136bc578484038952815161369d8582612ef5565b94506136a883612f08565b925060208a01995050600181019050613684565b50829750879550505050505092915050565b5f6020820190508181035f8301526136e6818461365b565b905092915050565b5f5f6040838503121561370457613703612b78565b5b5f61371185828601612d8f565b925050602061372285828601612d8f565b9150509250929050565b7f4e487b71000000000000000000000000000000000000000000000000000000005f52602260045260245ffd5b5f600282049050600182168061377057607f821691505b6020821081036137835761378261372c565b5b50919050565b7f4e487b71000000000000000000000000000000000000000000000000000000005f52601160045260245ffd5b5f6137c082612cc3565b91506137cb83612cc3565b92508282039050818111156137e3576137e2613789565b5b92915050565b5f6060820190506137fc5f830186612d51565b6138096020830185612de1565b6138166040830184612d51565b949350505050565b5f61382882612cc3565b91507fffffffffffffffffffffffffffffffffffffffffffffffffffffffffffffffff820361385a57613859613789565b5b600182019050919050565b5f819050815f5260205f209050919050565b5f6020601f8301049050919050565b5f82821b905092915050565b5f600883026138c17fffffffffffffffffffffffffffffffffffffffffffffffffffffffffffffffff82613886565b6138cb8683613886565b95508019841693508086168417925050509392505050565b5f819050919050565b5f6139066139016138fc84612cc3565b6138e3565b612cc3565b9050919050565b5f819050919050565b61391f836138ec565b61393361392b8261390d565b848454613892565b825550505050565b5f5f905090565b61394a61393b565b613955818484613916565b505050565b5f5b8281101561397b576139705f828401613942565b60018101905061395c565b505050565b601f8211156139ce57828211156139cd5761399a81613865565b6139a383613877565b6139ac85613877565b60208610156139b9575f90505b8083016139c88284038261395a565b505050505b5b505050565b5f82821c905092915050565b5f6139ee5f19846008026139d3565b1980831691505092915050565b5f613a0683836139df565b9150826002028217905092915050565b613a1f82612c33565b67ffffffffffffffff811115613a3857613a37613060565b5b613a428254613759565b613a4d828285613980565b5f60209050601f831160018114613a7e575f8415613a6c578287015190505b613a7685826139fb565b865550613add565b601f198416613a8c86613865565b5f5b82811015613ab357848901518255600182019150602085019450602081019050613a8e565b86831015613ad05784890151613acc601f8916826139df565b8355505b6001600288020188555050505b505050505050565b5f81549050919050565b5f613af982612cc3565b9150613b0483612cc3565b9250828202613b1281612cc3565b91508282048414831517613b2957613b28613789565b5b5092915050565b5f8190506001806001038301049050919050565b5f819050815f5260205f209050919050565b613b867fffffffffffffffffffffffffffffffffffffffffffffffffffffffffffffffff836020036008026139d3565b815481168255505050565b613b9a81613865565b613ba58382546139fb565b8083555f825550505050565b602084105f8114613c0c57601f841160018114613bd957613bd286856139fb565b8355613c06565b613be283613865565b613bfa6001613bf088613877565b036001830161395a565b613c048785613b91565b505b50613c66565b613c1585613877565b613c1e85613877565b613c2784613865565b828101601f89168015613c4257613c418160018403613b56565b5b84841115613c5757613c568585038361395a565b5b60018a60020217875550505050505b5050505050565b68010000000000000000841115613c8757613c86613060565b5b602083105f8114613cd057602085105f8114613cae57613ca786856139fb565b8355613cca565b8360ff1916935083613cbf84613865565b556001866002020183555b50613cda565b6001856002020182555b5050505050565b8054613cec81613759565b80841115613d0157613d0084828486613c6d565b5b80841015613d1657613d1584828486613bb1565b5b50505050565b82811015613d3b57613d305f828401613942565b600181019050613d1c565b505050565b613d4a5f82613ce1565b50565b7f4e487b71000000000000000000000000000000000000000000000000000000005f525f60045260245ffd5b5f8214613d8957613d88613d4d565b5b613d9281613d40565b5050565b5f5b82811015613db757613dac5f828401613d79565b600181019050613d98565b505050565b81831015613df357613dcd82613b30565b613dd684613b30565b613ddf83613b44565b818101613dee83850382613d96565b505050505b505050565b68010000000000000000821115613e1257613e11613060565b5b613e1b81613ae5565b828255613e29838284613dbc565b505050565b5f81519050919050565b613e428282613a16565b5050565b613e4f82612ecc565b613e598183613df8565b613e6283612ee6565b613e6b83613b44565b5f5b83811015613ea057613e7e83613e2e565b613e888184613e38565b60208401935060018301925050600181019050613e6d565b505050505050565b5f81905092915050565b7f7b226e616d65223a2022426c6f6f6d204964656e7469747920436172642023005f82015250565b5f613ee6601f83613ea8565b9150613ef182613eb2565b601f82019050919050565b5f613f0682612c33565b613f108185613ea8565b9350613f20818560208601612c4d565b80840191505092915050565b7f222c0000000000000000000000000000000000000000000000000000000000005f82015250565b5f613f60600283613ea8565b9150613f6b82613f2c565b600282019050919050565b7f226465736372697074696f6e223a2022000000000000000000000000000000005f82015250565b5f613faa601083613ea8565b9150613fb582613f76565b601082019050919050565b7f22696d616765223a2022000000000000000000000000000000000000000000005f82015250565b5f613ff4600a83613ea8565b9150613fff82613fc0565b600a82019050919050565b7f2261747472696275746573223a200000000000000000000000000000000000005f82015250565b5f61403e600e83613ea8565b91506140498261400a565b600e82019050919050565b7f7d000000000000000000000000000000000000000000000000000000000000005f82015250565b5f614088600183613ea8565b915061409382614054565b600182019050919050565b5f6140a882613eda565b91506140b48287613efc565b91506140bf82613f54565b91506140ca82613f9e565b91506140d68286613efc565b91506140e182613f54565b91506140ec82613fe8565b91506140f88285613efc565b915061410382613f54565b915061410e82614032565b915061411a8284613efc565b91506141258261407c565b915081905095945050505050565b7f646174613a6170706c69636174696f6e2f6a736f6e3b6261736536342c0000005f82015250565b5f614167601d83613ea8565b915061417282614133565b601d82019050919050565b5f6141878261415b565b91506141938284613efc565b915081905092915050565b5f81519050919050565b5f82825260208201905092915050565b5f6141c28261419e565b6141cc81856141a8565b93506141dc818560208601612c4d565b6141e581612c5b565b840191505092915050565b5f6080820190506142035f830187612d51565b6142106020830186612d51565b61421d6040830185612de1565b818103606083015261422f81846141b8565b905095945050505050565b5f8151905061424881612bab565b92915050565b5f6020828403121561426357614262612b78565b5b5f6142708482850161423a565b91505092915050565b7f5b000000000000000000000000000000000000000000000000000000000000005f82015250565b5f6142ad600183613ea8565b91506142b882614279565b600182019050919050565b7f7b2274726169745f74797065223a224964656e746974792054797065222c22765f8201527f616c7565223a2200000000000000000000000000000000000000000000000000602082015250565b5f61431d602783613ea8565b9150614328826142c3565b602782019050919050565b7f227d2c00000000000000000000000000000000000000000000000000000000005f82015250565b5f614367600383613ea8565b915061437282614333565b600382019050919050565b7f7b2274726169745f74797065223a225461676c696e65222c2276616c7565223a5f8201527f2200000000000000000000000000000000000000000000000000000000000000602082015250565b5f6143d7602183613ea8565b91506143e28261437d565b602182019050919050565b7f7b2274726169745f74797065223a224d61696e2043617465676f72696573222c5f8201527f2276616c7565223a220000000000000000000000000000000000000000000000602082015250565b5f614447602983613ea8565b9150614452826143ed565b602982019050919050565b7f7b2274726169745f74797065223a224d696e746564204174222c22646973706c5f8201527f61795f74797065223a2264617465222c2276616c7565223a0000000000000000602082015250565b5f6144b7603883613ea8565b91506144c28261445d565b603882019050919050565b7f5d000000000000000000000000000000000000000000000000000000000000005f82015250565b5f614501600183613ea8565b915061450c826144cd565b600182019050919050565b5f614521826142a1565b915061452c82614311565b91506145388287613efc565b91506145438261435b565b915061454e826143cb565b915061455a8286613efc565b91506145658261435b565b91506145708261443b565b915061457c8285613efc565b91506145878261435b565b9150614592826144ab565b915061459e8284613efc565b91506145a98261407c565b91506145b4826144f5565b915081905095945050505050565b7f4e487b71000000000000000000000000000000000000000000000000000000005f52601260045260245ffd5b5f81546145fb81613759565b6146058186613ea8565b9450600182165f811461461f576001811461463457614666565b60ff1983168652811515820286019350614666565b61463d85613865565b5f5b8381101561465e5781548189015260018201915060208101905061463f565b838801955050505b50505092915050565b7f2e706e67000000000000000000000000000000000000000000000000000000005f82015250565b5f6146a3600483613ea8565b91506146ae8261466f565b600482019050919050565b5f6146c482856145ef565b91506146d08284613efc565b91506146db82614697565b91508190509392505050565b7f4e487b71000000000000000000000000000000000000000000000000000000005f52603260045260245ffd5b5f61471f8286613efc565b915061472b8285613efc565b91506147378284613efc565b9150819050949350505050565b5f61474e82612cc3565b915061475983612cc3565b925082820190508082111561477157614770613789565b5b92915050565b5f61478182612cc3565b915061478c83612cc3565b92508261479c5761479b6145c2565b5b828204905092915050565b5f6040820190506147ba5f830185612d51565b6147c76020830184612de1565b939250505056fe68747470733a2f2f626c6f6f6d70726f746f636f6c2e61692f6170692f6964656e746974792f636172642f706c616365686f6c6465722e706e67a26469706673582212208dcb16a29723d4a57ea881b29f1be5b23887c98290b808df54c26b1aac5a3c6a64736f6c63430008210033","linkReferences":{}},"methodIdentifiers":{"adminBurn(uint256)":"badb97ff","approve(address,uint256)":"095ea7b3","balanceOf(address)":"70a08231","getApproved(uint256)":"081812fc","getIdentityData(uint256)":"48c363f6","getTokenIdByAddress(address)":"8cbab7e4","getValidPersonalityTypes()":"c59e81cf","hasMinted(address)":"38e21cce","isApprovedForAll(address,address)":"e985e9c5","isValidPersonalityType(string)":"77e24e34","mint(string,string,string,string[],string[])":"4f632d4b","name()":"06fdde03","owner()":"8da5cb5b","ownerOf(uint256)":"6352211e","renounceOwnership()":"715018a6","safeTransferFrom(address,address,uint256)":"42842e0e","safeTransferFrom(address,address,uint256,bytes)":"b88d4fde","setApprovalForAll(address,bool)":"a22cb465","setBaseURI(string)":"55f804b3","supportsInterface(bytes4)":"01ffc9a7","symbol()":"95d89b41","tokenURI(uint256)":"c87b56dd","totalSupply()":"18160ddd","transferFrom(address,address,uint256)":"23b872dd","transferOwnership(address)":"f2fde38b","updateIdentity(uint256,string,string,string,string[],string[])":"c213bf80"},"id":36}